:02000000ff00ff
:080002004c6174746963650030
:17000a00694345637562653220323031362e30322e32373831300074
:16002100506172743a2069434534304858314b2d545131343400fc
:1b003700446174653a2041756720323920323031372032303a30323a35300087
:0200520000ffad
:040054007eaa997e69
:02005800510055
:02005a0001059e
:03005c00920020ef
:03005f0062014bf0
:0300620072009099
:0300650082000016
:02006800110085
:02006a00010192
:20006c0000000000000000000000000000000000000000000008000000000000000000006c
:09008c000000000000000000006b
:2000950000000000000000000000000000000000000000000000000000000000000000004b
:0a00b5000000000000000000000041
:2000bf0000000000000000000000000000000000000000000004000000000000100000000d
:0900df00000000400000000000d8
:2000e8000000000000000000000000000000000000000000000000000000000000000000f8
:0a01080000000000000000000000ed
:200112000000000000000000000000800000000000000000000800800020000000000000a5
:09013200000000000010000000b4
:20013b0000000000000000000000000500000000000000000000000d00030000000000404f
:0a015b00000000000000000000009a
:200165000000000000040000000000001000000000000040000000001000000000000040d6
:0901850000000000000000000071
:20018e00000000000000000000000000000000000000000000000000000000000000000051
:0a01ae000000000000000000000047
:2001b800000000000004000000000000100000000000004000000000302000000002008001
:0901d8000000000000010000001d
:2001e1000000000000000000000000000000000000000000000000000000000000003c00c2
:0a02010000000000000000000000f3
:20020b000000000000000000000000000008000000000000000000b000100000000000000b
:09022b00c000000000000000000a
:200234000000000000000000000000000000c0000000000000008000000100000200000067
:0a025400040000000000000000009c
:20025e00000000000000000000000000000000000000000000000000000000000000000080
:09027e0000000000000000000077
:20028700000000000000000000000000000000000000000000004000000000000100000016
:0a02a700000000000000000000004d
:2002b1000000000000000000000000000000000000000000000000001000000000000040dd
:0902d10000000000000000000024
:2002da00000000000000000000000000000000000000000000008000000000000200000082
:0a02fa0000000000000000000000fa
:200304000000000000000000000000000000000000000000000000000000000000000000d9
:090324000000000140040000008b
:20032d00000000000000000000000000000000000040000000000000000000000000000070
:0a034d0000000000000300000000a3
:20035700000000000000000000000000000000000000000000000000000000000000000086
:090377000000020000000000007b
:2003800000000000000000000000000000000000000000000000000000000000000000005d
:0a03a0000000000000000000000053
:2003aa00300100000000000000000000000000000000000000000000000000000000000002
:0903ca0000000400000000000026
:2003d300030000000000000000000000000000000000000000000000000000000000000007
:0a03f30000000040000000000000c0
:2003fd000002000000000000000000000000000000000000000000000000000000000000de
:09041d00000000000000000000d6
:20042600000020000000000000000000000000000000000000000000000000000000000096
:0a04460000000000000000000000ac
:2004500000000000000000000000000000000000000000000000000000000000000000008c
:0904700000000000000000000083
:20047900000020000000000000000000000000000000000000000000000000000000000043
:0a0499000000000000000000000059
:2004a300000000000000000000000000000000000000000000000000000000000000000039
:0904c30000000000000000000030
:2004cc00000000000000000000000000000000000000000000000000000000000000000010
:0a04ec000000000000020000000004
:2004f6000000000000000000000000000000000000000000000000000000000000000000e6
:09051600000000000000000000dc
:20051f000000000000000000000000000000000000000000000000000000000000000000bc
:0a053f0000000000000000000000b2
:2005490000040000000000000000000000000000000000000000000000000000000000008e
:090569000000000000001cf0403d
:200572000002800000000000000000000000000000000000000000000000000000000000e7
:0a059200000000000000010f00004f
:20059c0000010000000000000000000000000000000000000000000000000000000000003e
:0905bc0000000000000000000036
:2005c500000000000000000000000000000000000000000000000000000000000000000016
:0a05e500000000000000000000000c
:2005ef0000020000000000000000000000000000000000000000000000000000800000006a
:09060f00000002000004000000dc
:200618000000200000000000000000000000000000000000000000000000000000000000a2
:0a063800000000000002c0000000f6
:20064200000000000000000000000000000000000000000000000000000000010000000097
:090662000000040000000000008b
:20066b0000002000000000000000000000000000000000000000000000000000200000002f
:0a068b0000000080000000000000e5
:20069500000200000000000000000000000000000000000000000000000000000000000043
:0906b50000000000002800000014
:2006be0000000000000000000000000000000000000000000000000000000000000000001c
:0a06de000000000000000000000012
:2006e8000000000000000000000000000000000000000000001000000000000000000000e2
:09070800000000000038000000b0
:200711000000200000000000000000000000000000000000000000000000000000000000a8
:0a07310000000000000000000000be
:20073b00000000000000000000000000000000000000000000000000000000000000000797
:09075b00bc100000000178a04070
:20076400000000000000000000000000000000000000000000000000000000000000000075
:0a07840003c1000000002f0f500019
:20078e0000000000000000000000000000000000000000000000000000000000000000004b
:0907ae0000000000000000000042
:2007b700000000000000000000000000000000000000000000000000000000000000000022
:0a07d7000000000000000000000018
:2007e100000000000000000000000000000000000000000000000000000000010005800072
:09080100000000000000000000ee
:20080a000000000000000000000000000000000000000000000000000000000020000000ae
:0a082a0000000000000000000000c4
:200834000002000000000000000000000000000000000000000000000000000000000000a2
:090854000000000000000000009b
:20085d0000000000000000000000000000000000000070000000000000000000000000000b
:0a087d000000000000000000000071
:2008870000020000000000000000000000000000800000000020006000ef040080000000dc
:0908a70000000000000000000048
:2008b0000000000000000000000000000000000008000000000000020010f000000000001e
:0a08d000000000000000000000001e
:2008da00000000000000000000000000000000030000000000400003818f040100000000a3
:0908fa00000000000000000000f5
:200903000000000000000000000000000000000030000000000c00000000f0002000000088
:0a09230000000000000000000000ca
:20092d00000200000000000000000000000000000000007008000000000000000007000623
:09094d00bc1000000000000000d5
:20095600000000000000000000000000000000000000000000000000000000000000080079
:0a09760003c10000000000000000b3
:20098000000000000000000000000000000000000000000000000000000000000000000057
:0909a0000000000000000000004e
:2009a90000002000000000000000000000000000000000000000000000000000000000000e
:0a09c9000000000000000000000024
:2009d300000000000000000000000000000000000000000000000000000000000000000004
:0909f300000000000000000000fb
:2009fc000000000000000000000000000000000000000000000000000000000000000000db
:0a0a1c0000000000000000000000d0
:200a26000000000000000000000000000000000000058e0000000006800000000000000097
:090a4600000000000000000000a7
:200a4f00000000000000000000000000000000000000000000000000000000000000000087
:0a0a6f00000000000000000000007d
:200a7900000000000000000000000000000000030001000000000000000000010000000058
:090a990000000000000000000054
:200aa2000000000000000000000000000000000038000000000000000000000020000000dc
:0a0ac200000000000000000000002a
:200acc000000000000000000000000000000000004000100004a00000000000100000000ba
:090aec00000004000000000000fd
:200af500000000000000000000000000000000000040009000000000000000000000000011
:0a0b150000000000000000000000d6
:200b1f00000000000000000000000000000000038400000000000000000000000800000027
:090b3f00000000000000000000ad
:200b480000000000000000000000000000000000204000000000000000000000010000002c
:0a0b68000000000000000000000083
:200b7200000000000000000000000000000000000010000000000000000000000000000053
:090b92000000000000000000005a
:200b9b000000000000000000000000000000000000400000000000000000000008000000f2
:0a0bbb000000000000000000000030
:200bc5000002000000000000000000000000000000000010000000000000000000000000fe
:090be50000000000000000000007
:200bee0001000000000000000000000000000000004000008000000000000000080000001e
:0a0c0e0000000020000000000000bc
:200c18000000000000000000000000000000000000000000000804000000000000000000b0
:090c3800000000000000000000b3
:200c4100000020000000000000000000000000000000000000000000000000000000000073
:0a0c61000000000000000000000089
:200c6b00000000000000000000000000000000000000000000000000000000000000000069
:090c8b0000000000000000000060
:200c94000000000000000000000000000000000000007000000000000000000000000000d0
:0a0cb4000000000000000000000036
:200cbe00000000000000000000000000000000000000000000000000000000000010000006
:090cde000000000000000000000d
:200ce7000000000000000000000000000000000000000000000000000000000000000000ed
:0a0d070000000000000000000000e2
:200d11000000000000000000000000000000000300000000000000000000000000000000bf
:090d3100000000000000000000b9
:200d3a00000000000000000000000000000000001000000000000000000000000000000089
:0a0d5a00000000000000000000008f
:200d64000001000000000000000000060000000000000100004001c0000000010000000065
:090d84000000040000040000005e
:200d8d0000000000000000000002000040000000000000f000000002000000000000000012
:0a0dad00000000000003c000000079
:200db700000200000000000000e00000000a54028000000000200000418f04000000000066
:090dd70000000200000000000011
:200de00000002000000000000008000002405a0008000000000000003810f00000000000ef
:0a0e000000000000000000000000e8
:200e0a00000000000000000000440003800000010000000000c00000040a540000000000de
:090e2a000000044000000000007b
:200e33000000000000000000000c00004000000010000000000c00000000a5000000000092
:0a0e5300000000a0000000000000f5
:200e5d0000020000000000000000000001cf0400000000700000000000000000000000002f
:090e7d0000000000000008f04034
:200e86000000000000000000000000000010f0000000000000000000000000000800000044
:0a0ea600000000200000010f05000d
:200eb000000000000000000000000006800a5400000000000000000000000000000000003e
:090ed000000000200000000000f9
:200ed90000002000000000000002000003c05a00000070000000000000000000000000004a
:0a0ef90000000004000000000000eb
:200f03000000000000000000000000000000000000000000000000000000000000000000ce
:090f23000000000e0000000000b7
:200f2c00000000000000000000000000200000000000000000000000000000000000000085
:0a0f4c00000000000000000000009b
:200f560000000000000000000000000280cf0400000580000000000380000000000000001e
:090f760000000000000000000072
:200f7f000000000000000000000000000010f0000000000000000000000000000000000052
:0a0f9f000000000000000000000048
:200fa900000000000000000000000000000000030001000000000000000000000000000024
:090fc9000000040000000000001b
:200fd20000000080000000000002000000000000380008000000000000000000000000003d
:0a0ff2000000008000000000000075
:200ffc0000000000000000000000014005ca040004000100000000000000000000000000bc
:09101c00000000000000000000cb
:2010250000000000000000000000000003c0f54000400090000000000000000000000000e3
:0a10450000000000000000000000a1
:20104f00000000000000000000e00000000000038400000000200000000000008001000079
:09106f0000000200000000000076
:20107800000000000000000000080000000000002040900000000000000000000000000060
:0a109800000000000000000000004e
:2010a20000000000000000000040020296aa04000400000000c002000000000000000000e0
:0910c2000000040000001a0f40b8
:2010cb0000000000000000000000000403e0f5400040000000040034000000000000000071
:0a10eb000000008000000000f1107a
:2010f5000002000000000000000000002eea54080400001000000000000000000008000049
:09111500000000002000000000b1
:20111e0000000000000000000000001429f0aa4000400000800000000000000000001000ca
:0a113e000000000001400000000066
:2011480000000000000000000000000000000000080000000000000000af040b0000005e63
:09116800015040000000000000ed
:201171000000200000000000000000000000000000000000000000003000f00020000000fe
:0a119100001700000000000000003d
:20119b0000000000000000000000006054ef5400000000000000000000000000000000003d
:0911bb000000000000000000002b
:2011c4000000000000000000000000002030f540003800000000000000000000000000004e
:0a11e4000000000000000000000001
:2011ee0000000000000000000000000356ea0400000000000000000000000000000000009a
:09120e00000000000000000000d7
:2012170000000000000000000000000023d0f540000000000000000000000000000000008f
:0a12370000000000000000000000ad
:20124100000000000000000000c00000000000010000000000000000000000030005800044
:0912610000000000000000000084
:20126a000000000000000000000000240000000010000000000000000000000030000800f8
:0a128a00000000000000000000005a
:2012940000000000000000000000000000000000000000000000000000000000000000003a
:0912b40000000000000000000031
:2012bd0000000000000000000000000000000000000070000000000000000000000000b0f1
:0a12dd000000000000000000000007
:2012e700000000000000000000e0000000000000800000000020020000af04000000003a78
:0913070028004000000000000075
:20131000000000000000000000080000000000000800f0000000003c0000f0010000000090
:0a133000c280000000000000000071
:20133a00000000000000000000c000000000000300000000004001628000000000000000ad
:09135a000000000000000000008a
:201363000000000000000000000c00000000000010000000000c0002400000000000000000
:0a13830000000000000280000000de
:20138d000002000000000000000000000000000000000078080001e001af04000000000029
:0913ad0000000000000000000037
:2013b6000000000000000000000000000000000000000000000000020000f0000000000025
:0a13d600000000000002c00000004b
:2013e00000000000000000000000000280000000000000000000000000000000000000006b
:091400000000000000016e500024
:2014090000002000000000000000000000000000000000e0000000000000000000000000c3
:0a14290000000000000003050000b1
:20143300000000000000000000000000000000000000000000000000018f04000000000005
:0914530000000000000000000090
:20145c000000000000000000000000000000000000000000000000000000f000000000a0e0
:0a147c000000000000000000000066
:2014860000000000000000000000000700cf04000800000000000000000000000000000064
:0914a6000000000000015e0501d8
:2014af000000000000000000000000000010f000000000000000000000000000000000001d
:0a14cf00000000000002c2005000ff
:2014d90000000000000000000000000000000001000580000000000000000000000000006d
:0914f900000000002000000000ca
:201502000000000000000000000000000000000010000000000000000000000000000000b9
:0a152200000000000240000000007d
:20152c000060000000000000000000000000000004000000000000001fc050000005009b6c
:09154c00e200000000280000008c
:2015550000040000000000000000000000000000004000000000000000300508000008bf2e
:0a157500a48800000006c00000007a
:20157f00000038000000683d00e0000000000003840000000020000000e0f40000018a97f2
:09159f000080820000694855003b
:2015a8000000020000000003c008000028000000204000000000000000000f00000001b30b
:0a15c80081000000034001055100fe
:2015d20020000000000000000040000000000000045018000000000000e55400000000965e
:0915f200200080001402085500dd
:2015fb0000000000000000000000000000000000004001000000060001d0aa000000000509
:0a161b00000000000360050aa010a3
:2016250000030000700000000000000000000000040000500008020021c1009800050073e2
:091645001540000014007a550064
:20164e00000000000080000000000000000000000040000080004e0402de200000010800e1
:0a166e00c1540400002000055010d4
:2016780000000000000000000000000000000000000000000000040016e0540010071cb31e
:09169800a200800000280a55019f
:2016a10000000000000000000000000000000000000000000000000001d0f500028000a73a
:0a16c100408800000006d40aa000d3
:2016cb0000000000000000000000000680000000000000000000080640000000000b00839d
:0916eb00a08080000006dc05006f
:2016f40000000800000000000000000040000000000000000000010020000000000058070e
:0a1714000104000001c3a60a000052
:20171e000000000000000000000000003dca541000000000000000605db63400001b8b00f3
:09173e00000000000400de1002ae
:201747000800000000000000000000003670aa40000000000000000421edc3200000b8a09d
:0a1767000000000000201f05200014
:20177100000000000000000000c0000000000003280780000000000041cf041000030c03b0
:091791009540000020061c0540f3
:20179a000000000000000000000000000000000031000800000000002010f0200000910b1a
:0a17ba0002a8800001c21d00a284f5
:0217c400000023
:0217c60011010f
:0217c80001011d
:2017ca000000000000000000000000000000000000000000000000000000000000000000ff
:0917ea00000000000000000000f6
:2017f3000000000000000000000000000000000000000000000000000000000000000000d6
:0a18130000000000000000000000cb
:20181d000000000000000000000000000000000000000000000000000000000000000000ab
:09183d00000000000000000000a2
:20184600000000000000000000000000000000000000000000000000000000000000000082
:0a1866000000000000000000000078
:20187000000000000000000000000000000000000000000000000000000000000000000058
:0918900000000000080000000047
:2018990000000000000000000000000000000000000000000000000000000000000000002f
:0a18b9000000000000d00000000055
:2018c300000000000004000000000000100000000000004000000000100000000000004061
:0918e300000000000001000000fb
:2018ec000000000000000000000000000000000000000000000000000000000000000000dc
:0a190c0000000000000000000000d1
:2019160000000000000400000000000010000000000000400000000010000000000000400d
:09193600000000000001000000a7
:20193f00000000000000000000000000000000000000000000000000000000000000000088
:0a195f00000000000000000000007e
:2019690000000000000000000000000000000000000000000000000000000000000000005e
:09198900000000000000008000d5
:20199200000000000000000000000000000000000000000000000000000000000000000035
:0a19b200000000000000000c00001f
:2019bc0000000000000000000000000000000000000000000000000000000000000000000b
:0919dc0000000000000000000002
:2019e5000000000000000000000000000000000000000000000000000000000000000000e2
:0a1a050000000000000000000000d7
:201a0f000000000000000000000000000000000000000000000000000000000000000000b7
:091a2f00000000000000000000ae
:201a380000000000000000000000000000000000000000000000000000000000000000008e
:0a1a58000000000000000000000084
:201a620000000000000000000000000000000001000980f0000000000000000000000000ea
:091a82000000000000000000005b
:201a8b000000000000000000000000000000000030001000000000000000000000000000fb
:0a1aab000000000000000000000031
:201ab50000000000000000000000000000000000000989500000000000000000000000002f
:091ad50000000000000000000008
:201ade0000000000000000000000000000000000000070e000000000000000000000000098
:0a1afe0000000000000000000000de
:201b080000000000000000000000000000000000000109b0000000000000000040000000c3
:091b2800000000000000000000b4
:201b310000000000000000000000000000000000000000c8000000000000000000000000cc
:0a1b5100000000000000000000008a
:201b5b00000200000000000000000000000000000000005000000000000000000000000018
:091b7b0000000000000000000061
:201b8400000000000000000000000000000000000000000800000000000000000000000039
:0a1ba4000000000000000000000037
:201bae0000000000000000000000000000000000000088700400000000000000000000001b
:091bce000000000000000000000e
:201bd7000000200000000000000000000000000000403003800000000000000000000000db
:0a1bf70000000000000000000000e4
:201c0100000000000000000000000000000000000000807380000000000000000000000050
:091c2100000000000000000000ba
:201c2a00000000000000000000000000000000000040100800000000000000000000000042
:0a1c4a000000000000000000000090
:201c54000000000000000000000000000000000204000072c0000000000000000000000038
:091c740000000000000000000067
:201c7d000000000000000000000000000000000038400008040000000000000000100000b3
:0a1c9d00000000000000000000003d
:201ca70000000000000000000000000000000000040000b3c00000000000000000000000a6
:091cc70000000000000000000014
:201cd0000000000000000000000000000000000000400008000000000000000000000000ac
:0a1cf00000000000000000000000ea
:201cfa00000000000000000000000000000000030000005000000000000000000000000077
:091d1a00000000000000000000c0
:201d230000000000000000000000000000000000300010080000a0000000000000000000b8
:0a1d43000000000000000000000096
:201d4d0000000000000000000000000000000000000008300000000000000000000000003e
:091d6d000000000000000000006d
:201d760000000000000000000000000000000000000070e8000000000000000000000000f5
:0a1d96000000000000000000000043
:201da00000000000000000000000000000000000000f0fb0000068000000000000000000ed
:091dc000000000004000000000da
:201dc9000000000000000000000000000000000002000000000001000000000001000000f6
:0a1de90000000000000000000000f0
:201df3000002000000000000000000000000000000001f500000000000000000000000005f
:091e1300000000000000000000c6
:201e1c0000000000000000000000000000000000000000e8000000000000000000000000be
:0a1e3c00000000000000000000009c
:201e460000000000000000000000000000000000000b809000000000000000000000000061
:091e660000000000000000000073
:201e6f00000020000000000000000000000000000000780d000081400000000001100000dc
:0a1e8f000000000000000000000049
:201e990000000000000000000000000000000003000080b380000000000000000000000073
:091eb90000000000000000000020
:201ec2000000000000000000000000000000000030001008000000000000000000000000b8
:0a1ee20000000000000000000000f6
:201eec0000000000000000000000000000000000800700f20000000000000000400000001d
:091f0c000000000040000000008c
:201f150000000000000000000000000000000000080081e000000000000000000002000041
:0a1f35000000000020000000000082
:201f3f000000000000000000000000000000000000078013400000000000000000000000a8
:091f5f0000000000000000000079
:201f6800000000000000000000000000000000000000100800000000000000000000000041
:0a1f8800000000000000000000004f
:201f920000000000000000000000000000000001000000000000000000000000000000002e
:091fb20000000000000000000026
:201fbb000000000000000000000000000000000030000000000000000000000000000000d6
:0a1fdb0000000000000000000000fc
:201fe5000000000000000000000000000000000000000000000000000000000000000000dc
:09200500000000000000000000d2
:20200e000000000000000000000000000000000000000000000000000000000000000000b2
:0a202e0000000000000000000000a8
:2020380000000000000000000000000000000000100900000000000000000000000000006f
:092058000000000000000000007f
:202061000000000000000000000000000000000000800000000000000000000000000000df
:0a2081000000000000000000000055
:20208b00000200000000000000000003810f000000000000000000000000000000000000a0
:0920ab000000000000000000002c
:2020b400000000000000000000000000280cf04000000000000000000000000000000000a8
:0a20d4000000000000000000000002
:2020de0000000000000000000000000000000000068000000000000000000000000000005c
:0920fe00000000000000000000d9
:20210700000020000000000000000000000000000040000000000000000000000000000058
:0a21270000000000000000000000ae
:2021310000000000000000000040000000000000040000000000000000000000000000004a
:0921510000000000000000000085
:20215a000000000000000000000c0000000000000040000000000000000000000000000019
:0a217a00000000000000000000005b
:20218400000000000000000000800000000000020400000000006000000000000000000055
:0921a40000000000000000000032
:2021ad000000000000000000000e000000000000384000000000000000000000000000008c
:0a21cd000000000000000000000008
:2021d7000000000000000000000000000000000004000000000000000000000000000000e4
:0921f700000000000000000000df
:2022000000000000000000000000000000000000004000000000000000000000000000007e
:0a22200000000000000000000000b4
:20222a000000000000000000002002c000000001800000000020400000000002800000004f
:09224a000000000000000000008b
:202253000000000000000000000c000000000000100000000000000000000000300000001f
:0a2273000000000000000000000061
:20227d00000000000000000000000002000000000000000000000004000000008001580062
:09229d0000000000000000000038
:2022a6000000000000000000000000000400000000020000000000002800000000009890c2
:0a22c600000000000000000000000e
:2022d0000000000000000000000020001cad140000000000000000000000000000000000f1
:0922f000000000000000005a008b
:2022f9000000000000000000000000000219e2410000000000000000000000000000000087
:0a2319000000000000000405a00809
:20232300000200000000000000200000260aa4000007000000000003c10f000000000000ca
:0923430000000000000000000091
:20234c0000000000000000000000000003dea5400000000000000000001af0400000000061
:0a236c000000000000000000000067
:20237600000000000000000000000340000000000000000000000003c10f01000000000030
:092396000000000000000000003e
:20239f00000020000000000000000000000000000000000500000000040ef04000000000b7
:0a23bf000000000000000000000014
:2023c900000000000000000000000140040aa401000000000040a000010f00030000000805
:0923e90015524000000000000044
:2023f200000000000000000000040000015ea54010001000000c00000008f05030000007d8
:0a241200215500000000000000004a
:20241c0000000000000000000080104380000000800300000080c000000000020000000088
:09243c0003d20000400000000082
:202445000000000000000000000e00200400000028000000000e00000000000038000007d0
:0a24650023c3000000000000000087
:20246f000000000000000000002008c00000000000000e0000000000000000000000000057
:09248f0003d1000014000000005c
:202498000000000000000000000000000000000000000000000000006800000000000007b5
:0a24b80023c3200000000000000014
:2024c20000000800000000000020000200000003000000000020000600000002800100081c
:0924e20003d0020000000000001c
:2024eb000000000000000000000c000c0400000010000000000c00007400000030008187ed
:0a250b00a3c3000000000000000060
:20251500000000000000000000000002370aa4000000000000000000030a04008001000825
:0925350003d002000000000000c8
:20253e0000000000000000000000000005dca540000000000000000000e8a040000099a5b1
:0a255e00a3c300000000000000000d
:2025680000000000000000000000000400000000000000000004a804010afc080000000090
:0925880003d00000000140a50988
:20259100000000000000000000000001300000000000000000002340705eaf4000000005d4
:0a25b100a3c3000a00002005a000eb
:2025bb000002000000000000002000000000000000000f00002003c00000000000000000ec
:0925db0003d00200000000000022
:2025e40000000000000000000000000000000000000000100000004000000000000001a7df
:0a260400a3c3000000000000000066
:20260e00000000000000000000000003400000000400800800000340150aa4008000080847
:09262e0003d0020004034a180065
:2026370000002000000000000000000004000000004570030000000002dea54000001815b5
:0a26570023c300000000001244003d
:202661000000000000000000000000001f0aa40004200000000000000000000180000808d7
:0926810003d00000002820050828
:20268a000000000000000000000400002b7ca54000400000000400000000000010000195b6
:0a26aa0023c30000000015a050003b
:2026b4000000000000000000008000000000000204000000008000000000000200000000fe
:0926d40003d00800000000000022
:2026dd000000000000000000000e00000000000038400000000e000000000000380000070a
:0a26fd0023c300e00000000000000d
:20270700000000000000000000280002a70aa4000400000000200040030a040000000807af
:09272700c3d000000000100f00f7
:2027300000000000000000000000000001fca540004000000004002060fea04010000007ee
:0a27500033c30040000000a0f400b5
:20275a00000000000000000000000000000000018000000000040806b7aa50080000000013
:09277a00154800000002d98b4053
:202783000000000000000000000000000000000010000000000081403a6a58000000000168
:0a27a300295402ca000020a47600a9
:2027ad000000000000000000000000000000000000008000000000000000000000030e0873
:0927cd00154200000000000000ac
:2027d60000000000000000000000000068000000000078000000000000000000000080057e
:0a27f600e154400000600000000004
:20280000000000000000000000000000000000001000000000000000000000001000001088
:092820002a802000800000000065
:2028290000000000000000000000000000000000028000000000000028000000008000085d
:0a2849006154020050060000000078
:202853000002000000000000000000030000000000000e0000040003c30550080000000823
:0928730015400000040000000003
:20287c000000000000000000000000002c000000000000000000000001fc550100000007b6
:0a289c00395484000200000000001f
:2028a600000000000000000000100000010f00004000000000040803c0000000118d0b94a6
:0928c6002a80000000000000005f
:2028cf00000020000000000000010000000ef0400400000100008340000000000080000042
:0a28ef0021548408000000000000de
:2028f900000000000000000000400000010f000100000000000001c4000000000000800425
:092919001540000000035050407d
:202922000000000000000000000c0000000cf0403000000000000020780000000000500530
:0a294200a154a000000201ca040025
:20294c0000000000000000000080000000000002800900000000e80383055010000d9004ec
:09296c0015420800400000a540de
:202975000000000000000000000e000000000000280000000000014005ec5500000550a58b
:0a299500215480e00000040a540001
:20299f0000000000000000000010000000000000000900000000200000000000000d1b04b3
:0929bf00154000003441fc0a50ef
:2029c80000000000000000000001000000000000000080000000000000000000000000a7c7
:0a29e8006154820000060e802500f5
:2029f20000000000000000000000000240000003000000000000000000000002000000007e
:092a1200000008000000000000b3
:202a1b000000000000000000000c00003c00000030003800000000000000000010000000db
:0a2a3b00000000c0000000000000d1
:202a450000000000000000000000000000000000000000000000000280000000028000006d
:092a650000000000042000000044
:202a6e00000000000000000000000000000000000000000000000000040000000200000042
:0a2a8e00000000000260400000009c
:202a9800000000000000000000000000000000000100000000000000010f001000000000fd
:092ab80000000000000000000015
:202ac1000000000000000000000000000000000000000000000000000008f04000000000bd
:0a2ae10000000000000000000000eb
:202aeb00000200000000000000000000000000000000000000000003400000000020000066
:092b0b00000000000000000000c1
:202b1400000000000000000000000000000000000000000000000016000000000004000087
:0a2b34000000000000000000000097
:202b3e000000000000000000000000003d0aa4100400100800000000000000000000000060
:092b5e000000000000000000006e
:202b6700000020000000000000000000027ea54002c000c5800000000000000000000000c2
:0a2b87000000000000000000000044
:202b9100000000000000000000000000000000000400000000400000000f001200000f04ac
:092bb1003c1008000000205558fa
:202bba000000000000000000000400000000000000400000000c0000000cf04012800000dd
:0a2bda002bc1004000001c855400d0
:202be4000000000000000000008001c000000002070000000010000000000000000f000068
:092c04003c1000000000000f4824
:202c0d000000000000000000000e0000000000003840000000020000000000000800800097
:0a2c2d0063c1002000001c8f0c00a2
:202c3700000000000000000000000000000000000400000000000003c10f000000000000a6
:092c5700000000000000000f4421
:202c6000000000000000000000000000000000000040000000000000000ef04000000000d6
:0a2c80000000000000001c8f0c0093
:202c8a000000000000000000000000000000000300008000000000000000000000000a009d
:092caa00154048000400200f4011
:202cb3000000000000000000000000000000000030001000000c000000000000000000179e
:0a2cd300315400c002061e8f0c00f1
:202cdd0000000000010043c0000000000000000000000000000000020000000000000e348f
:092cfd002a8000a00400200f4011
:202d060000000000001e06bc1000000028000000000000000000000e040000000000500033
:0a2d2600715402040260168f0c00c5
:202d30000000000000000000000800020000000000000000000000070200ac00000b003089
:092d5000000000000000000f402b
:202d590000000000000000000000400000000000000000000000000024ee0a408000d9a1c4
:0a2d7900733008000000168f0c00f4
:202d83000002000000000000000000002c05a00800000800000000000000000100059a04a9
:092da300154040000000000f4043
:202dac000000000000000000000000000200a5400000000000000000000000003000388335
:0a2dcc00f954000000001e8f0c00f7
:202dd6000000000000e0000000000000000000000000000800000000000000000000001cd9
:092df600368000a01c20200f40d3
:202dff0000002000000100000000000000000000000000030200008000000000000000ad61
:0a2e1f00b29c08040060548f0c0000
:202e2900200030000000000000c400040000000100000000000000001fbf5c000000907432
:092e49002a8008000020200f403f
:202e520002070300000000000004000038000000100000000000000078eed14100001980f7
:0a2e7200615400400006548f0c006c
:202e7c00000020000000000000800000010f0000800000000080000000000000000000f78f
:092e9c00400000001c00000f4082
:202ea5000000038000000000000e0000000ef04088000000000e000000000000000010e5b3
:0a2ec5002b30002000001c8f0c00d1
:202ecf000000000000000000000000000000000000090e0000000000000000000001000cbf
:092eef00154040000000080f40ee
:202ef800000000000000000000000000000000000000000000000000000000000000800733
:0a2f1800f154000000001dbf0c0082
:022f22000000ad
:022f2400110298
:022f26000101a7
:202f2800000000000000000000000000000000000000000000000000000000000000000089
:092f480000000000000000000080
:202f5100000000000000000000000000000000000000000000000000000000000000000060
:0a2f71000000000000000000000056
:202f7b00000000000000000000000000000000000000000000000000000000000000000036
:092f9b0000000000000002c0006b
:202fa40000000000000000000000000000000000000000000000000000000000000000000d
:0a2fc4000000000000000000000003
:202fce000000000000000000000000000000000000000000000000000000000000000000e3
:092fee00000000000000000000da
:202ff7000000000000000000000000000000000000000000000000000000000000000000ba
:0a30170000000000000000000000af
:203021000000000000080000000000002000000000080000000000002000000000000080bf
:0930410000000000000200000084
:20304a00000000000000000000000000000000000000000000000000000000000000000066
:0a306a00000000000000000000005c
:2030740000000000000800000000000020000000000800000000000020000000000000806c
:0930940000000000000200000031
:20309d0000000000000000000000000000000000000000000000000400000000000000000f
:0a30bd000000000000000000000009
:2030c7000000000000000000000000000000000000000000000000000000000000000000e9
:0930e700000000000c00000000d4
:2030f0000000000000000000000000000000000000000000000000000000000000000000c0
:0a3110000000000000800000000035
:20311a00000000000000000000000000000000000000000000000000000000000000000095
:09313a000000000000002000006c
:2031430000000000000000000000000000000000000000000000000000000000000000006c
:0a31630000000000000000000080e2
:20316d00000000000000000000000000000000000000000000000000000000000000000042
:09318d0000000000000000000039
:20319600000000000000000000000000000000000000000000000000000000000000000019
:0a31b600000000000000000000000f
:2031c00000000000000000000000000000000000000000000000000000000000034283c067
:0931e000000000000000000000e6
:2031e900000000000000000000000000000000000000040000000000000000000022473029
:0a32090000000000000000000000bb
:2032130000000000000000000000000000000000000000000000000000000010030a13c0ab
:0932330000004000000000000052
:20323c0000000000000000000000000000000000000000000000000000000000002a002820
:0a325c000000000000000000000068
:2032660000000000000000000000000000000000000000001200000001000008034892e66a
:093286000000200000000000001f
:20328f0000000000000000000000000000000000000000000020000000000000c022177096
:0a32af0040000100000000000000d4
:2032b9000002000000000000000000000000000000000000000083dc00000000034892e0d7
:0932d9006000000000000000008c
:2032e20000000000000000000000000000000000000000000000003c2000000000221368d3
:0a33020043800000000000000000fe
:20330c0000000000000000000000000000000000000000000000000000000000030a17c0bd
:09332c0000000000000000000098
:2033350000002000000000000000000000000000000000000000000000000000002a0030fe
:0a335500000000000000000000006e
:20335f0000000000000000000000000000000000000000000000000000000000034896c0ad
:09337f002800000000000000001d
:203388000000000000000000000000000000000000000000000000000000000000221328c8
:0a33a80006c0000000000000000055
:2033b20000000000000000000000000000000000000000000000000005800000030a16c093
:0933d2006400000000000000008e
:2033db0000000000000000000000000000000000000000000000000000000000002a007038
:0a33fb0002000000000000000000c6
:2034050000000000000000000000000000000000000000000000000000000000030a17c6bd
:093425002c002000000000000052
:20342e0000000000000000000000000000000000000000000000000000000000002a0068ec
:0a344e00060001000000000000006d
:20345800000000000000000000000000000000000000000080008145e1800000030a13c0cd
:093478000000000000000000004b
:2034810000000000000000000000000000000000000000000800417c2b080000022a0020e7
:0a34a1000000000000000000000021
:2034ab0000000000000000000000000000000000000000008400000000000010034893c0cf
:0934cb006c00400000000000014b
:2034d400000000000000000000000000000000000000000008000000000000000022112875
:0a34f400028000000000000000004c
:2034fe0000000000000000000000000000000000000000000200000005000008034892e6dc
:09351e0000002000000000000084
:2035270080000000000000000000000000000000000000000010000000000000402215601d
:0a35470040000100000000000084b5
:2035510000020000000000000000000000000000300000000000000000000000034892e06b
:093571006c0000000000000000e5
:20357a0000000000000000000000000000000000000000000800000000000000002211688e
:0a359a004280000000000000000065
:2035a40000000000000000000000000000000000000000000000000000000000034897c065
:0935c400000008083c00000000b2
:2035cd00000020000000000000000000000000000000000000000000000000000022152067
:0a35ed00000000c0c3c00000000091
:2035f70000000000000000000000000000000000000000400000000000000000034897c0d2
:09361700000000083dc0000000a5
:203620000000000000000000000000000000000000000034000000000000000000221128fb
:0a3640000000000083c2000000003b
:20364a0000000000000000000000000000000000000000000000000000000000030a16c07d
:09366a00640000000000300000c3
:2036730000000000000000000000000000000000000000000000000000000000002a0060ad
:0a369300020000000000000000002b
:20369d0000000000000000000000000000000000000000000300000000000000030a17c620
:0936bd0064002000000000000080
:2036c60080000000000000000000000000000000000000000020000000009000002a006822
:0a36e60002000100000000000004d3
:2036f00000000000000000000000000000008000000000000200a94000000000034893c0b1
:09371000000000000000000000b0
:203719000000000000000000000000000000000000000000000001680f00000002221730ad
:0a3739000000000000000000000086
:2037430000000000000000000000000000000000000000000000000000000010030a13c076
:093763000000400000000000001d
:20376c0000000000000000000000000000000000000000000200000000000000002a0028e9
:0a378c000000000000000000000033
:2037960000000000000000000000000000000000000000000300000001000008034892e644
:0937b600000020000000000000ea
:2037bf0000000000000000000000000000000000000000000020000000080000c022177059
:0a37df00400001000000000000009f
:2037e90000020000000000000000000000000000000000000000000000004000030a12e07f
:0938090064000000000000000052
:20381200000000000000000000000000000000000000000000c0000000000000002a006844
:0a3832004340000000000000000009
:20383c000000000000000000000000000000000000000000000083cc05800000070a17c0b0
:09385c0000000000000000000063
:2038650000002000000000000000000000000000000024000000003c20000000002a003049
:0a3885000000000000000000000039
:20388f0000000000000000000000000000000000000000000000000000000000130a16c026
:0938af000400000000000000000c
:2038b80000000000000000000000000000000000000000000000000000000000002a00289e
:0a38d80002400000000000000000a4
:2038e20000000000000000000000000000000000000000000000000005000000130a16c0ce
:0939020064000000000000000058
:20390b0000000000000000000000000000000000000000000000000000000000002a007002
:0a392b000200000000000000000090
:2039350000000000000000000000000000000000000000000000000000000000030a17c688
:09395500640020000000000000e5
:20395e0000000000000000000000000000000002000000000000000000000000102a0068a5
:0a397e000600010000000000000038
:2039880000000000000000000000000000000000000000008000000000000009030a1380f6
:0939a800380020000000000000be
:2039b1008000000000000000000000000000000000000000080000000000a000022a00287a
:0a39d10000000000000000000000ec
:2039db0000000000000000000000000000002100000000408400815590000010070a13a0ad
:0939fb0000004000000000000083
:203a04000000000000000000000000000000000000000034080042bc2e00a000002a00234d
:0a3a2400c0000000000000000000d8
:203a2e0000000000000000000000000000000000000000000200000001800008070a168046
:093a4e0038002000000000000017
:203a570000000000000000000000000000000000000000000010000000080000402a0028a5
:0a3a77000000050000000000001030
:203a810002020000000000000000000000000000000000088000815c90000000070a160005
:093aa100640000000000000000b8
:203aaa000000000000000000000000000000000000000000088042bc2e000001002a0060bd
:0a3aca0003c004000000000000101b
:203ad40000000000000000000000000000000000000000000000000000000000070a17802a
:093af400000000000000000000c9
:203afd0000002000000000000000000000000000000000000000000000000000002a002837
:0a3b1d00000000000000000000009e
:203b270000000000000000000000000000000000000000000000000000000000070a1680d7
:093b470000000000000000000075
:203b500000000000000000000000000000000000000000004000000000000000002a0020cb
:0a3b7000000000000000000000004b
:203b7a0000000000000000000000000000000000000000000000000005800000120a1780f3
:093b9a00640000000000000000be
:203ba30000000000000000000000000000000000000000000000000000000000002a006870
:0a3bc30002000000000000000000f6
:203bcd000000000000000000000000000000000000000000020000000000000000000020b6
:093bed00040020000000000000ab
:203bf60000000000000000000000000000000400000000000020000000008180000000008a
:0a3c16004200010000000000000061
:203c20000000000000000000000000000000000000000000020000000000000802055b0018
:093c4000000020083dc000000056
:203c490080000000000000000000000000000000000004002000000000000000000af0fcc1
:0a3c69000000002083c200000000ec
:203c73000000000000000000000000000000000000000000200000000000001002a57700e3
:093c9300000040000000000001e7
:203c9c0000000000000000000000000000000000000000000500000000000000080aa0b899
:0a3cbc0000000000000000000000fe
:203cc600000000000000000000000000000000000000000012000000010000080205378005
:093ce600000020083de000000090
:203cef0080000000000000000000000000000000000000000220000000000000c00af07cdd
:0a3d0f000000050283c0000000144c
:203d19000002000000000000000000000000000010000000000083dc0000100000000020e9
:093d390000000000000000000081
:203d420000000000000000000000000000000000000000000040003c2000000100000001c3
:0a3d6200c000040000000000001083
:203d6c000000000000000000000000000000000000000000000083ce0500000000000016cb
:093d8c00780000000000000000b6
:203d950000002000000000000000000000000000000000000000003c0000000000000000b2
:0a3db50000000000000000000010f4
:203dbf00000000000000000000000000000000000000000800000000001e080000000000b6
:093ddf00040000000000000000d7
:203de8000000000000000000000000000000000000000000000000000000000000000000bb
:0a3e0800028000000000000000002e
:203e12000000000000000000000000000000000000000000500083cc058000000000001c50
:093e3200000000083dc0801000f2
:203e3b0000000000000000000000000000000080000000000200003c200000000000000089
:0a3e5b0023c0002083c0050a000008
:203e65000000000000000000000000000000000000000000200000000000000000000020fd
:093e850000000000000000000034
:203e8e0080000000000000000000000000000000000000000500000000000000000000018e
:0a3eae00400000000000000f0014a7
:203eb800000000000000000000000000000000000000000080000000000000000a0f7800d9
:093ed800000000083c000000009d
:203ee100000000000000000000000000000000000000000008000000000000000020f08029
:0a3f010000000020c3c00000000013
:203f0b000000000000000000000000000000000000000000840000000500001000000000fd
:093f2b000000400000000000014c
:203f3400c0000000000000000000000000000000000000000800000000080000000000009d
:0a3f5400000000000000000000045f
:203f5e00000000000000000000000000000000000000000002000000000000080000000039
:093f7e000000200000000000001a
:203f87000000000000000000000000000000000000000000001000000000000040000000ca
:0a3fa700000001000000000000000f
:203fb10000020000000000000000000000000000400000008000000000000000000000002e
:093fd100000000000000000000e7
:203fda000000000000000000000000000000000000000000080000000000000000000000bf
:0a3ffa0000000000000000000000bd
:2040040000000000000000000000000000000000000000000000000000000000000000009c
:0940240000000000000000000093
:20402d00000020000000000000000000000000000000000000000000000000000000000053
:0a404d000000000000000000000069
:20405700000000000000000000000000000000000000004000000000000000000000000009
:0940770000000000000000000040
:204080000000000000000000000000000000000000000034000000000000000000000000ec
:0a40a000000000000000000b00000b
:2040aa0000000000000000000000000000000000000000000000815f900000000000000086
:0940ca00000000000000000000ed
:2040d3000000000000000000000000000000000000000000000002bc3e00000000000000d1
:0a40f30000000000000000000000c3
:2040fd00000000000000000000000000000000000000000003000000000800000000002078
:09411d0000002000000000000079
:20412600c00000000000000000000000000000000000000000200000009100000000000107
:0a4146004000010000000000000826
:204150000000000000000000000000000000000000000000000083cc000000000000000000
:0941700000000000000000000244
:2041790000000000000000000000000000000000000000000000003c20009000000000003a
:0a419900000000000000000000001c
:2041a3000000000000000000000400000000000000000000000083dc000000100000000089
:0941c300000040000000000001b2
:2041cc0000000000000000000002000000000000000000000000003c200000000000000075
:0a41ec0000000000000000000000c9
:2041f6000000000000000000000000000000000000000000030000000000000c000000009a
:094216000000200000000000007f
:20421f0080000000000000000000000000000000000000000020000000000000800000005f
:0a423f000000010000000000000470
:20424900000200000000000000000000000000001000000040000000000000000000003ec5
:09426900000000083cc00000c088
:20427200000000000000000000000000000000000000000002000000000000000000000129
:0a429200e000008083c2000000007d
:20429c000000000000000000000000000000000000000000000000000f80000002055b40d1
:0942bc0068000000000000000091
:2042c50000002000000000000000000000000000000024000000000000780000000af0ac77
:0a42e50000000000000001000000ce
:2042ef0000000000000000000000000000000000000000002000000000000000000000008f
:09430f0000000000000000140091
:20431800000000000000000000000000000000000000000004000000000000000000000081
:0a433800000000000000000a000071
:204342000000000000000000000000000000000000000000000000000580000082057bc014
:09436200040000000000000080ce
:20436b0000000000000000000000000000000000000000000000000000000000000af0ac8c
:0a438b0002800000000000000000a6
:2043950000000000000000000000000000000000000000000000a94080000000000000009f
:0943b500000000283ce0000000bb
:2043be008000000000000000000000000000000000000000000002940000000000000003c6
:0a43de00c000000083c0000000448e
:2043e8000000000000000000000000000000000000000000800083cc000000000100038062
:09440800000000000000000100aa
:2044110000000000000000000000000000000000000000000800003c20000a000400000019
:0a443100020000000000000000007f
:20443b000000000000000000000000000000004000000040840000000000001001000680c6
:09445b000000000a81c10000010b
:20446400c000000000000000000000000000000000000034680000000000000000000000dc
:0a448400000000009400f0000004a6
:20448e00300000000000000000000000000000000000000002000000078000080100070045
:0944ae0000000000000000000005
:2044b70001000000000000000000000000000000000000000010000000000000c000000014
:0a44d70000000000000000000000db
:2044e100000200000000000000000000000020000000000080000000000000000100020016
:094501002c00000a81c100000039
:20450a0000000000000000000000000000000400080000000800000000000000000000007d
:0a452a00078000209400f000180044
:204534000000000000000000000000000000000000000000000000000500000001000780da
:094554000000000000000000005e
:20455d0000002000000000000000000000000000000000000000000000000000000000001e
:0a457d0003800000000000000000b1
:2045870000000000000000000000000000000000000000000000000000000000010007000c
:0945a700240000000000100000d7
:2045b0000002c0000000000000000000000000000000000000000000000000000000000029
:0a45d00007c000000000008000009a
:2045da0000000000000000000000000000000000000000000000000000000000010006803a
:0945fa000000000abcfe01800073
:2046030000000000000000000000000000000000000000000000000000000a00000000008d
:0a46230002c00000abc3000000005d
:20462d000000000f0781e000000000000000800000000000020000000000008001000300f0
:09464d00040000000000800000e0
:20465600c0000000f008000000000000000000000000000050200000000000940000000088
:0a46760003400000000001000000f6
:02468000000038
:02468200110322
:02468400010132
:20468600000000000000000000000000000000000000000000000000000000000000000014
:0946a6000000000000000000000b
:2046af000000000000000000000000000000000000000000000000000000000000000000eb
:0a46cf0000000000000000000000e1
:2046d9000000000000000000000000000000000000000000000000000000000000000000c1
:0946f900000000000000000000b8
:20470200000000000000000000000000000000000000000000000000000000000000000097
:0a472200000000000000000000008d
:20472c0000000000000000000000000000000000000000000000000000000000000000006d
:09474c0000000000000000000064
:20475500000000000000000000000000000000000000000000000000000000000000000044
:0a477500000000000000000000003a
:20477f0000000000000800000000000020000000000800000000000020000000000000804a
:09479f000000000000020000000f
:2047a8000000000000000000000000000000000000000000000000000000000000000000f1
:0a47c80000000000000000000000e7
:2047d2000000000000080000000000002000000000080000000000002000000000000080f7
:0947f20000000000000206800036
:2047fb0000000000000000000000000000000000000000000000000000000000000000009e
:0a481b000000000000000040000053
:20482500000000000000000000000000000000000000000000000000000000000000000073
:0948450000000000080000000062
:20484e0000000000000000000000000000000000000000000000000000000000000000004a
:0a486e000000000000c00000000080
:20487800000000000000000000000000000000000000000000000000000000000000000020
:0948980000000000000000000017
:2048a1000000000000000000000000000000000000000000000000000000000000000000f7
:0a48c10000000000000000000000ed
:2048cb000000000000000000000000000000000000000000000000000000000000000000cd
:0948eb00000000000000000000c4
:2048f4000000000000000000000000000000000000000000000000000000000000000000a4
:0a4914000000000000000000000099
:20491e00000000000000000000000000000000000000000000000000000000000000000079
:09493e0000000000000000000070
:20494700000000000000000000000000000000000000000000000000000000000000000050
:0a4967000000000000000000000046
:20497100000000000000000000000000000000000000000000000000000000000000000026
:094991000000000000000000001d
:20499a000000000000000000000000000000000000000000000000000000000000000000fd
:0a49ba0000000000000000000000f3
:2049c4000000000000000000000000000000000000000000000000000000000000000000d3
:0949e400000000000000000000ca
:2049ed000000000000000000000000000000000000000000000000000000000000000000aa
:0a4a0d00000000000000000000009f
:204a170000020000000000000000000000000000000000000000000000000000000000007d
:094a370000000000000000000076
:204a4000000000000000000000000000000000000000000000000000000000000000000056
:0a4a6000000000000000000000004c
:204a6a0000000000000000000000000000000000000000000000000000000000000000002c
:094a8a0000000000000000000023
:204a93000000200000000000000000000000000000000000000000000000000000000000e3
:0a4ab30000000000000000000000f9
:204abd000000000000000000000000000000000000000000000000000000000000000000d9
:094add00000000000000000000d0
:204ae6000000000000000000000000000000000000000000000000000000000000000000b0
:0a4b060000000000000000000000a5
:204b1000000000000000000000000000000000000000000000000000000000000000000085
:094b30000000000000000000007c
:204b390000000000000000000000000000000000000000000000000000000000000000005c
:0a4b59000000000000000000000052
:204b6300000000000000000000000000000000000000000000000000000000000000000032
:094b830000000000000000000029
:204b8c00000000000000000000000000000000000000000000000000000000000000000009
:0a4bac0000000000000000000000ff
:204bb6000000000000000000000000000000000000000000000000000000000000000000df
:094bd600000000000000000000d6
:204bdf000000000000000000000000000000000000000000000000000000000000000000b6
:0a4bff0000000000000000000000ac
:204c090000000000000000000000000000000000000000000000000000000000000000008b
:094c290000000000000000000082
:204c3200000000000000000000000000000000000000000000000000000000000000000062
:0a4c52000000000000000000000058
:204c5c00000000000000000000000000000000000000000000000000000000000000000038
:094c7c000000000000000000002f
:204c850000000000000000000000000000000000000000000000000000000000000000000f
:0a4ca5000000000000000000000005
:204caf000002000000000000000000000000000000000000000000000000000000000000e3
:094ccf00000000000000000000dc
:204cd8000000000000000000000000000000000000000000000000000000000000000000bc
:0a4cf80000000000000000000000b2
:204d0200000000000000000000000000000000000000000000000000000000000000000091
:094d220000000000000000000088
:204d2b00000020000000000000000000000000000000000000000000000000000000000048
:0a4d4b00000000000000000000005e
:204d550000000000000000000000000000000000000000000000000000000000000000003e
:094d750000000000000000000035
:204d7e00000000000000000000000000000000000000000000000000000000000000000015
:0a4d9e00000000000000000000000b
:204da8000000000000000000000000000000000000000000000000000000000000000000eb
:094dc800000000000000000000e2
:204dd1000000000000000000000000000000000000000000000000000000000000000000c2
:0a4df10000000000000000000000b8
:204dfb00000000000000000000000000000000000000000080000000000000000000000018
:094e1b000000000000000000008e
:204e240000000000000000000000000000000000000000000000000000000000000000006e
:0a4e44000000000000000000000064
:204e4e00000000000000000000000000000000000000000000000000000000000000000044
:094e6e000000000000000000003b
:204e770000000000000000000000000000000000000000000000000000000000000000001b
:0a4e97000000000000000000000011
:204ea1000000000000000000000000000000000000000000000000000000000000000000f1
:094ec100000000000000000000e8
:204eca000000000000000000000000000000000000000000000000000000000000000000c8
:0a4eea0000000000000000000000be
:204ef40000000000000000000000000000000000000000000000000000000000000000009e
:094f140000000000000000000094
:204f1d00000000000000000000000000000000000000000000000000000000000000000074
:0a4f3d00000000000000000000006a
:204f4700000200000000000000000000000000000000000000000000000000000000000048
:094f670000000000000000000041
:204f7000000000000000000000000000000000000000000000000000000000000000000021
:0a4f90000000000000000000000017
:204f9a000000000000000000000000000000000000000000000000000000000000000000f7
:094fba00280000000000000000c6
:204fc3000000200000000000000000000000000000000000000000000000000000000000ae
:0a4fe30000000000000000000000c4
:204fed000000000000000000000000000000000000000000000000000000000000000000a4
:09500d000000000000000000009a
:2050160000000000000000000000000000000000000000000000000000000000000000007a
:0a5036000000000000000000000070
:2050400000000000000000000000000000000000000000000000000000000000000000143c
:0950600000000000000000000047
:20506900000000000000000000000000000000000000000000000000000000000000000027
:0a508900028000000000000000009b
:205093000000000000000000000000000000000000000000000000000000000010000240ab
:0950b300000000000000000000f4
:2050bc0000000000000000000000000000000000000000000000000000000000000505e4e6
:0a50dc0000000000000000000000ca
:2050e6000000000000000000000000000000000000000000000000000000000000000000aa
:0951060000004000000000000060
:20510f00000000000000000000000000000000000000000000000000000000000000000080
:0a512f000000030000000000000073
:2051390000000000000000000000000000000000000000000000000000000000020a031c2b
:0951590034000a13fc00000100ff
:2051620000000000000000000000000000000000000000000000000000000000002a0130d2
:0a518200004000663fc0000000007e
:20518c0000000000000000000000000000000000000000000000000000000001024817b4ed
:0951ac00200000000000000000da
:2051b50000000000000000000000000000000000000000000000000000000000003219325d
:0a51d5000040000000000000000090
:2051df00000200000000000000000000000000000000000000000000000000001248370617
:0951ff00740040000000000000f3
:205208000000000000000000000000000000000000000000000000000000000000321960db
:0a52280066400000000000000000d6
:205232000000000000000000000000000000000000000000000000000000000002489780fb
:0952520000000000000000000053
:20525b00000020000000000000000000000000000000000000000000000000000032116070
:0a527b000000000000000000000029
:20528500000000000000000000000000000000000000000000000000000000000248970028
:0952a500000000000000000014ec
:2052ae0000000000000000000000000000000000000000000000000000000000003211306d
:0a52ce000000000000000000008056
:2052d800000000000000000000000000002000000000000000000000000000000248179e97
:0952f8000000100000000000009d
:205301000000000000000000000000000000000000000000000000000000000008321172cf
:0a532100e600070000000000000095
:20532b0000000000000000000000000000000000000000038000000000000000224817045a
:09534b0020000000000000000039
:20535400000000000000000000000000000000000000000000000000000000000072113a7c
:0a5374006640000000000000000089
:20537e000000000000000000000000000000000000342000020000000000000102489324b7
:09539e00000040000000000001c5
:2053a7000000000000000000000000000000000000001600003000000000000000321976df
:0a53c7000380030000000000000056
:2053d100000000000000000000000000000000000028000000000000000000000248b7840f
:0953f10000000000000001a00012
:2053fa000000000000000000000000000000000000005c0000000000000000000032197c70
:0a541a0006000000000005080080f5
:2054240000000000000000000000000000000000002803c00000000000000000024813061a
:095444002060000000005000008f
:20544d0000000000000000000000000000000000000000040000000000000000003219668a
:0a546d006380000000000000000052
:2054770000000000000000000000000000000000002003000000000000000000024893a471
:095497004000404003cd5000012b
:2054a000000000000000000000000000000000000000440000000000000000000032116ef7
:0a54c00006000000041cc50a0000ed
:2054ca000000000000000000000000000000000000200000000000000000001002489700b1
:0954ea00200000014019000a0035
:2054f3000000000000000000000000000000000000000020080000000000000000321134fa
:0a55130002400000281cc000000048
:20551d0000000000000000000000000000000000033ec2000100000000000001024853804c
:09553d0000008042943e000000d1
:20554600000000000000000000000000000000000000607000200000000001c00032193415
:0a55660000000800000c80000000a7
:20557000000000000000000000000000000000000d2402c080000000000000000248b300ab
:0955900026801003d4190000006c
:20559900000000000000000000000000000000000000000408400000000000000032193c1f
:0a55b90066500700015dc00000000d
:2055c30000000000000000000000000000000000053c04008000000000000000224817a4de
:0955e30020000000000008000097
:2055ec0000000000000000000000000000000000000004780800000000000000a032113efa
:0a560c006040000000000380000071
:2056160000000000000000000000000000000000000000000004001efd9b0000024896805a
:0956360020000002801c5000005d
:20563f00000000000000000000000000000000000000000000000043ff50a000003219646a
:0a565f0000400300280d8000000049
:2056690000000000000000000000000000000000000000000000206ca00000000248320079
:095689000000000060e950a000df
:2056920000000000000000000000000000000000000000000000010a6000000008321975c5
:0a56b20060000000091e1500000052
:2056bc000000000000000000000000000000000000000000200000000f1000000248169699
:0956dc007900000000000000004c
:2056e5000000000000000000000000000000000000000000040000000000a0000032197640
:0a57050066000000000000000080b4
:20570f0000020000000000000000000000000000000240000000206ca0800000024832040a
:09572f002400000000005080106d
:2057380000000000000000000000000000000000000000000000010ae03800000032117e6d
:0a575800664000000000050a008012
:20576200000000000000000000000000000000004000000004002801900000000248b682a8
:09578200306008028019000000eb
:20578b000000200000000000000000000000000000000000000002815c0000000032113c80
:0a57ab0060000000280d800000805f
:2057b50000000000000000000000000000000000000000000200206ca01000000248b60096
:0957d5000000000060e900008002
:2057de0000000000000000000000000000000000000000000030010be001c0000032117417
:0a57fe0000200000090c100000005c
:20580800000000000000000000000000000000000000000000202801d0000000024836a443
:0958280030001002801f30000066
:205831000000000000000000000000000000000000000000000002815c01a0002032116e06
:0a58510066000700280d8800000023
:20585b00000000000000000000000000000000000000000000000006950a00002248160206
:09587b002100040003cd08000027
:2058840000000000000000000000000000000000000000000020404048d9b000003211242c
:0a58a40060680000041cc100000051
:2058ae00000000000000000000000000000000000000000002002800f39b00000248b240e6
:0958ce0040000001682900a0005f
:2058d700000000000000000000000000000000000000000000300280cfb8a0000032196429
:0a58f70006002300000c97000000db
:2059010000000000000000000000000000000000000000000000205ec00b00000248b6de5f
:0959210000000000000000001469
:20592a00000000000000000000000000000000000000000000000108e001e0000032192622
:0a594a006000000000000000008073
:20595400000000000000000000000000000000000000034000002800cd80000002481644d7
:095974003400000168295800000c
:20597d00000000000000000000000000000000000000000400020280ce50000000321966b3
:0a599d0060400000000e95000000bd
:2059a70000020000000000000000000000000000000000000000000000890000024892e495
:0959c70040000000000050b00097
:2059d0000000000000000000000000000000000000000000000000000070f0000032116ea6
:0a59f0006600000000000000000047
:2059fa00000000000000000000000000000000000000000080002800e000000003edb24221
:095a1a002000000000090000005a
:205a2300000020000000000000000000000000000400000008000280ce0000000037b17c83
:0a5a4300e0400000014c900000005c
:205a4d0000000000000000000000000000000000000000000120030ef000000083ed32c0b5
:095a6d0000000003827c0000101f
:205a7600000000000000000000000000000000000000000000200030c10000000037b924eb
:0a5a960000000040142f8000008083
:205aa000000000000000000000000000000000000000000080000000000080000bedf656a2
:095ac000280018016829b000005b
:205ac900000000000000000000000000000000000000000008400000000000000037b13c51
:0a5ae900e6100700001e9d000000fb
:205af30000000000000000000000000000000000000000008000001dd00000000000b01462
:095b13000000000294180090004b
:205b1c00000000000000000000000000000000000000000008004043fd00000000100031a0
:0a5b3c0042800000001f80010000fd
:205b46000000000000000000000000000000080000000000000000000000000000185a4085
:095b6600000002681410000000a8
:205b6f000000000000000000000000000000000000000000000000000000000010024304bd
:0a5b8f000000002081558000000c8a
:205b99000000000000000000000000000000000000000000000000000000000000a00680c6
:095bb90000000000000050a000f3
:205bc20000000000000000000000000000000000000000000000000000000000000a056450
:0a5be200000000000000050b0000a9
:205bec00000000000000000000000000000000000000000000000000000f000000005ac070
:095c0c0000000002943e000000bb
:205c15000000000000000000000000000000000000000000000000000000100000010dec65
:0a5c350000000000001da0000000a8
:205c3f000002000000000000000000000000000000004000200000000000000000a006cc71
:095c5f000000000000000000003c
:205c680000000000000000000000000000000000000000000400000000580000000a05644d
:0a5c880000000000000000180000fa
:205c92000000000000000000000000000000000000000000000000000000000000185a760a
:095cb2006c000002941e000000c9
:205cbb000002a000000000000000000000000000000000000000000000000000000241855f
:0a5cdb0042800000001da1800000bf
:205ce500200000000000000000000000000000000000000002042bc2c00a000400a0060018
:095d050020000001400b00000029
:205d0e00030000000000000000000000000000000000000000300814cb000000800a056468
:0a5d2e0000400000281cd00a00000d
:205d38000000000000000000000000000000000000000000000000000000000000180a74b5
:095d58002c00000d79fc50000044
:205d6100400000000000000000000000000000000000000000000000000000010402410595
:0a5d810060000000bed68000001c88
:205d8b0000000000000000000000000000000000000000020000000000000002a00f003411
:095dab000000000003de100000fe
:205db400000000000000000000000000000000000000000000000000000000000000f100de
:0a5dd40000000000040ce0000000d5
:025dde000000c3
:035de00062003f1f
:035de300720080cb
:025de6001100aa
:035de80082000036
:025deb000103b2
:085ded000000000000000000ae
:085df5000000000000000000a6
:085dfd0000000000000000009e
:085e0500000000000000000095
:0261ed000000b0
:0361ef00820080ab
:0261f2000103a7
:0861f4000000000000000000a3
:0861fc0000000000000000009b
:08620400000000000000000092
:08620c0000000000000000008a
:0265f4000000a5
:0265f600110191
:0365f8008200001e
:0265fb0001039a
:0865fd00000000000000000096
:0866050000000000000000008d
:08660d00000000000000000085
:0866150000000000000000007d
:0269fd00000098
:0369ff0082008093
:026a020001038e
:086a040000000000000000008a
:086a0c00000000000000000082
:086a140000000000000000007a
:086a1c00000000000000000072
:026e040000008c
:026e0600110277
:036e080082000005
:026e0b00010381
:086e0d00040ea4aea40e0e0e4b
:086e1500ae96b497b41e1e1ed8
:086e1d0015c73605b49e1e1ec8
:086e2500bfd60f3cb4961e1eff
:086e2d0004c70fbfb4961e1e3e
:086e3500047c8c04b6951e1ebe
:086e3d00bf6db43c96a51e1eba
:086e4500157cb4af96a51e1eda
:086e4d00bf7ca59696a51e1e50
:086e550004e5271516251e9e19
:086e5d00aef40e2c1f2c1e9652
:086e650015c71ebe0f3c1e966e
:086e6d00375e9e070f3c1e96e4
:086e75008c4f950c0f3e1e9698
:086e7d00265ea5bd0f1e1e9646
:086e8500cc16a4a60f1f1e96f7
:086e8d00778734160f8f1e9663
:086e9500dd963e0d0f871e96ed
:086e9d006e8f1fa40f871e96e3
:086ea500663c8f170f871e9653
:086ead00dd2d850d0d851c94ff
:086eb50077f0b4bc3cb43ca52d
:086ebd00ddf0b4a73cb43ca5d4
:086ec50066e13506bc343ca572
:086ecd0044782f9db43c3ca564
:086ed500bb2d0fe5b43c3ca508
:086edd00113c9e76b42d3ca58a
:086ee500aaa5965fb42d3ca59f
:086eed0000b495ccb42f3ca5c4
:086ef50033692574b48f3ca53c
:086efd0099692d6fb4873ca5d3
:086f050033783cdea5963ca5a3
:086f0d0088e13ed5a5963ca5e4
:086f150066b49f60a5963ca53f
:086f1d00552d87faa5963ca54d
:086f2500ff3c87c3a5963ca5c3
:086f2d0044e104402715bc25d6
